:020000040800F2
:10000000FFFF012071270008B9270008B927000861
:10001000B9270008B9270008B92700080000000028
:10002000000000000000000000000000B9270008E8
:10003000B927000800000000B9270008B927000808
:10004000B9270008B9270008B9270008B927000810
:10005000B9270008B9270008B9270008B927000800
:10006000B9270008B9270008B9270008B9270008F0
:10007000B9270008B9270008B9270008B9270008E0
:10008000B9270008B9270008B9270008B9270008D0
:10009000B9270008B9270008B9270008B9270008C0
:1000A000B9270008B9270008B9270008B9270008B0
:1000B000B9270008B9270008B9270008B9270008A0
:1000C000B9270008B9270008B9270008B927000890
:1000D000B9270008B9270008B9270008B927000880
:1000E000B9270008B9270008B9270008B927000870
:1000F000B9270008B9270008B9270008B927000860
:10010000B9270008B9270008B9270008B92700084F
:10011000B9270008B9270008B9270008B92700083F
:10012000B9270008B9270008B9270008B92700082F
:10013000B9270008B9270008B9270008B92700081F
:10014000B9270008B9270008B9270008B92700080F
:10015000B9270008B9270008B9270008B9270008FF
:10016000B9270008B9270008B9270008B9270008EF
:10017000B9270008B9270008B9270008B9270008DF
:08018000B9270008B9270008A7
:100190000348044B834202D0034B03B11847704716
:1001A000C4060020C40600200000000005480649DF
:1001B0000B1AD90F01EBA301491002D0034B03B175
:1001C00018477047C4060020C40600200000000045
:1001D00010B5064C237843B9FFF7DAFF044B13B18F
:1001E0000448AFF300800123237010BDC80600202F
:1001F000000000003834000808B5044B1BB1044966
:100200000448AFF30080BDE80840CFE700000000DD
:10021000CC0600203834000881F0004102E000BF25
:1002200083F0004330B54FEA41044FEA430594EAB6
:10023000050F08BF90EA020F1FBF54EA000C55EAF1
:10024000020C7FEA645C7FEA655C00F0E2804FEAC2
:100250005454D4EB5555B8BF6D420CDD2C4480EAA4
:10026000020281EA030382EA000083EA010180EAD4
:10027000020281EA0303362D88BF30BD11F0004F22
:100280004FEA01314FF4801C4CEA113102D0404258
:1002900061EB410113F0004F4FEA03334CEA133393
:1002A00002D0524263EB430394EA050F00F0A780AB
:1002B000A4F10104D5F1200E0DDB02FA0EFC22FAA6
:1002C00005F2801841F1000103FA0EF2801843FA9A
:1002D00005F359410EE0A5F120050EF1200E012A8B
:1002E00003FA0EFC28BF4CF0020C43FA05F3C018C9
:1002F00051EBE37101F0004507D54FF0000EDCF142
:10030000000C7EEB00006EEB0101B1F5801F1BD3EA
:10031000B1F5001F0CD349085FEA30004FEA3C0CEE
:1003200004F101044FEA445212F5800F80F09A80E4
:10033000BCF1004F08BF5FEA500C50F1000041EBE8
:10034000045141EA050130BD5FEA4C0C404141EBEC
:100350000101013C28BFB1F5801FE9D291F0000FE7
:1003600004BF01460020B1FA81F308BF2033A3F196
:100370000B03B3F120020CDA0C3208DD02F1140C8D
:10038000C2F10C0201FA0CF021FA02F10CE002F1C8
:100390001402D8BFC2F1200C01FA02F120FA0CFCC1
:1003A000DCBF41EA0C019040E41AA2BF01EB04510A
:1003B000294330BD6FEA04041F3C1CDA0C340EDC08
:1003C00004F11404C4F1200220FA04F001FA02F34B
:1003D00040EA030021FA04F345EA030130BDC4F109
:1003E0000C04C4F1200220FA02F001FA04F340EAFE
:1003F0000300294630BD21FA04F0294630BD94F0AF
:10040000000F83F4801306BF81F480110134013D95
:100410004EE77FEA645C18BF7FEA655C29D094EA06
:10042000050F08BF90EA020F05D054EA000C04BF84
:100430001946104630BD91EA030F1EBF002100206F
:1004400030BD5FEA545C05D14000494128BF41F00E
:10045000004130BD14F580043CBF01F5801130BD72
:1004600001F0004545F0FE4141F470014FF00000FD
:1004700030BD7FEA645C1ABF194610467FEA655CAE
:100480001CBF0B46024650EA013406BF52EA033550
:1004900091EA030F41F4002130BD00BF90F0000F3E
:1004A00004BF0021704730B54FF4806404F132047A
:1004B0004FF000054FF0000150E700BF90F0000F33
:1004C00004BF0021704730B54FF4806404F132045A
:1004D00010F0004548BF40424FF000013EE700BF2A
:1004E00042004FEAE2014FEA31014FEA02701FBFBA
:1004F00012F07F4393F07F4F81F06051704732F0EC
:100500007F4208BF704793F07F4F04BF41F4002142
:10051000704730B54FF4607401F0004521F00041A0
:100520001CE700BF50EA010208BF704730B54FF02A
:1005300000050AE050EA010208BF704730B511F02B
:10054000004502D5404261EB41014FF4806404F163
:1005500032045FEA915C3FF4D8AE4FF003025FEAE9
:10056000DC0C18BF03325FEADC0C18BF033202EB6D
:10057000DC02C2F1200300FA03FC20FA02F001FAC7
:1005800003FE40EA0E0021FA02F11444BDE600BF6A
:1005900070B54FF0FF0C4CF4E06C1CEA11541DBF19
:1005A0001CEA135594EA0C0F95EA0C0F00F0DEF8E4
:1005B0002C4481EA030621EA4C5123EA4C5350EAC9
:1005C000013518BF52EA033541F4801143F480131A
:1005D00038D0A0FB02CE4FF00005E1FB02E506F0AB
:1005E0000042E0FB03E54FF00006E1FB03569CF000
:1005F000000F18BF4EF0010EA4F1FF04B6F5007F06
:1006000064F5407404D25FEA4E0E6D4146EB060677
:1006100042EAC62141EA55514FEAC52040EA5E5000
:100620004FEACE2EB4F1FD0C88BFBCF5E06F1ED8AA
:10063000BEF1004F08BF5FEA500E50F1000041EBE1
:10064000045170BD06F0004646EA010140EA02008E
:1006500081EA0301B4EB5C04C2BFD4EB0C0541EAB0
:10066000045170BD41F480114FF0000E013C00F3C5
:10067000AB8014F1360FDEBF002001F0004170BDE9
:10068000C4F10004203C35DA0C341BDC04F1140402
:10069000C4F1200500FA05F320FA04F001FA05F28E
:1006A00040EA020001F0004221F0004110EBD3705B
:1006B00021FA04F642EB06015EEA430E08BF20EA87
:1006C000D37070BDC4F10C04C4F1200500FA04F32A
:1006D00020FA05F001FA04F240EA020001F00041BC
:1006E00010EBD37041F100015EEA430E08BF20EA2F
:1006F000D37070BDC4F1200500FA05F24EEA020E77
:1007000020FA04F301FA05F243EA020321FA04F0A5
:1007100001F0004121FA04F220EA020000EBD3705C
:100720005EEA430E08BF20EAD37070BD94F0000F5C
:100730000FD101F00046400041EB010111F4801F90
:1007400008BF013CF7D041EA060195F0000F18BF41
:10075000704703F00046520043EB030313F4801F7D
:1007600008BF013DF7D043EA0603704794EA0C0F37
:100770000CEA135518BF95EA0C0F0CD050EA41064D
:1007800018BF52EA4306D1D181EA030101F00041CA
:100790004FF0000070BD50EA410606BF10461946F2
:1007A00052EA430619D094EA0C0F02D150EA0136FE
:1007B00013D195EA0C0F05D152EA03361CBF10463F
:1007C00019460AD181EA030101F0004141F0FE41DE
:1007D00041F470014FF0000070BD41F0FE4141F462
:1007E000780170BD70B54FF0FF0C4CF4E06C1CEA62
:1007F00011541DBF1CEA135594EA0C0F95EA0C0F17
:1008000000F0A7F8A4EB050481EA030E52EA0335D1
:100810004FEA013100F088804FEA03334FF08055F2
:1008200045EA131343EA12634FEA022245EA11151F
:1008300045EA10654FEA00260EF000419D4208BFD0
:10084000964244F1FD0404F5407402D25B084FEA7D
:100850003202B61A65EB03055B084FEA32024FF429
:1008600080104FF4002CB6EB020E75EB030E22BF86
:10087000B61A754640EA0C005B084FEA3202B6EB46
:10088000020E75EB030E22BFB61A754640EA5C00F5
:100890005B084FEA3202B6EB020E75EB030E22BF85
:1008A000B61A754640EA9C005B084FEA3202B6EB86
:1008B000020E75EB030E22BFB61A754640EADC0045
:1008C00055EA060E18D04FEA051545EA16754FEAA7
:1008D00006164FEAC30343EA52734FEAC2025FEAC5
:1008E0001C1CC0D111F4801F0BD141EA00014FF054
:1008F00000004FF0004CB6E711F4801F04BF014325
:100900000020B4F1FD0C88BFBCF5E06F3FF6AFAE40
:10091000B5EB030C04BFB6EB020C5FEA500C50F1D0
:10092000000041EB045170BD0EF0004E4EEA113153
:1009300014EB5C04C2BFD4EB0C0541EA045170BD5A
:1009400041F480114FF0000E013C90E645EA060E9E
:100950008DE60CEA135594EA0C0F08BF95EA0C0FCC
:100960003FF43BAF94EA0C0F0AD150EA01347FF414
:1009700034AF95EA0C0F7FF425AF104619462CE7EB
:1009800095EA0C0F06D152EA03353FF4FDAE10464E
:10099000194622E750EA410618BF52EA43067FF49F
:1009A000C5AE50EA41047FF40DAF52EA43057FF42F
:1009B000EBAE12E78B891A072DE9F0410C46804611
:1009C00041D44A68002A59DDE66A002E53D000223D
:1009D000D8F80050216AC8F8002013F4805251D191
:1009E00001234046B047431C5FD0A389E66A216AD1
:1009F0005F0705D56268636B801A0BB1236CC01A60
:100A0000024600234046B047461C45D1D8F8003086
:100A1000B4F90C20002B55D01D2B01D0162B5AD128
:100A200023690022C4E90032616BC8F8005011B399
:100A300004F14403994202D0404600F067FA0020D6
:100A40006063BDE8F0810E69AEB10D680E60990774
:100A50000CBF63690023AD1BA3600AE02B4632463E
:100A6000A76A216A4046B8470028A5EB000506445E
:100A70000ADD002DF2DC0020BDE8F0810A6C002ABE
:100A8000A2DCF8E7606DB3E7A38943F04003A381DC
:100A90004FF0FF30BDE8F0812269A3892260002277
:100AA0006260DA04C0D56065BEE7D8F80030002B7C
:100AB0009BD01D2B0CD0162B0AD0A38943F04003EA
:100AC000A381D9E72169C4E90013D304ACD5EAE7CF
:100AD000C8F80050CFE742F04002A281CCE700BF47
:100AE0000B6923B310B5044682B008B18369BBB16A
:100AF000104B994212D0104B994216D00F4B99428D
:100B000008BFE168B1F90C302BB1204602B0BDE856
:100B10001040FFF74FBF002002B010BD6168F1E741
:100B2000019100F007F90199E2E7A168EAE70020E6
:100B3000704700BF9034000870340008503400083B
:100B400020B1054B01461868FFF7CABF034B0449A3
:100B5000186800F035B900BF00000020B03400086C
:100B6000E10A000800207047014900F029B900BFE0
:100B7000E10A00080020704770B54A1E682505FB91
:100B800002F50E4605F1740100F016FA044640B174
:100B900000210C30666005F168022160A06000F061
:100BA00065F9204670BD00BF1E4B70B51D68AB696E
:100BB000064643B34835D5E90134013B05D51EE06F
:100BC000013B5A1C04F1680419D0B4F90C20002A26
:100BD000F6D10025144B6566C4E90055A560C4E94B
:100BE0000455A5612946E360082204F15C0000F089
:100BF0003DF9C4E90D55C4E91255204670BD2C6875
:100C00002CB12546D7E7284600F010F8D2E704219A
:100C10003046FFF7B1FF044628600028F1D10C23CD
:100C20003360EAE7B03400080100FFFF2DE9F84F18
:100C3000334B34491A68816290424FF00003C0E997
:100C40001233036504BF012383610546FFF7ACFF40
:100C500068602846FFF7A8FFA8602846FFF7A4FFB2
:100C60006E68E86000240423F3607466C6E90044FB
:100C7000B460C6E90444B461214606F15C00082270
:100C800000F0F4F8DFF888B0AF68DFF888A0DFF88C
:100C90008890DFF888801C4BC6F83080C6E9086B66
:100CA000C6E90AA92146FB6008227C66C7E9004420
:100CB000BC60C7E90444BC6107F15C0000F0D6F8F1
:100CC000EE68124BC7F83080C7E9087BC7E90AA96C
:100CD0002146F3607466C6E90044B460C6E9044482
:100CE000B46106F15C00082200F0C0F80123C6E9F7
:100CF000086BC6E90AA9C6F83080AB61BDE8F88F79
:100D0000B0340008690B000809000100120002005D
:100D10004D12000875120008B5120008D51200081F
:100D2000024B0349186800F04BB800BFB03400080C
:100D3000E10A0008836903B978E77047704700BF8C
:100D4000704700BF704700BF704700BF024B0349A8
:100D5000186800F00FB800BF00000020650B000805
:100D6000024B0349186800F005B800BF00000020DE
:100D7000750B00082DE9F04110F148071BD088469B
:100D80000026D7E90154013D0FD4A389012B05F1B9
:100D9000FF3506D9B4F90E300133204601D0C047E3
:100DA00006436B1C04F16804EFD13F68002FE8D1C3
:100DB0003046BDE8F0813E463046BDE8F08100BFD8
:100DC0002DE9F84310F148071FD0884606464FF03A
:100DD0000009D7E90154013D11D4A389012B05F184
:100DE000FF3508D9B4F90E3001332146304602D020
:100DF000C04749EA00096B1C04F16804EDD13F6863
:100E0000002FE6D14846BDE8F883B9464846BDE81C
:100E1000F88300BF70B50D4E0D4D761BB61006D091
:100E20000024013455F8043B9847A642F9D1094EF5
:100E3000094D761B02F000FBB61006D000240134E9
:100E400055F8043B9847A642F9D170BD44370008D5
:100E5000443700084837000844370008024B18445C
:100E6000407800F008007047B4340008F0B48607FA
:100E700046D0541E002A3CD0CAB2034602E014F108
:100E8000FF3436D303F8012B9D07F8D1032C29D961
:100E9000CDB245EA05250F2C45EA054533D9A4F125
:100EA0001006360903F1200707EB061703F11002BD
:100EB00042E9045542E902551032BA42F8D1721C97
:100EC00014F00C0F03EB021204F00F0613D0331FC3
:100ED00023F003030433134442F8045B9342FBD131
:100EE00006F003042CB1C9B21C4403F8011B9C4258
:100EF000FBD1F0BC704734461346002CF3D1F8E721
:100F000014460346C2E71A462646E0E700293CD0CD
:100F100038B551F8043C0C1F002BB8BFE418054647
:100F200000F072FB234B1A682AB1A2420DD9216846
:100F30006018824223D0626028461C60BDE83840B9
:100F400000F064BBA34203D81A465368002BF9D1C2
:100F500011685018A04219D024D821686018834223
:100F600006D0636054602846BDE8384000F04EBBB0
:100F7000D3E900030144636021605460F3E7D2E9E0
:100F80000002014462602160D6E770472068014496
:100F9000501883421160E6D1D3E900030144536045
:100FA0001160E0E70C232B602846BDE8384000F0D4
:100FB0002DBB00BFE4060020F8B5CD1C25F00305CD
:100FC00008350C2D38BF0C25002D064633DBA94211
:100FD00031D82A4F00F018FB3A6852B113685B1BF6
:100FE00004D43FE023685B1B29D522465468002CBB
:100FF000F8D1796800293BD02946304600F014F931
:10100000431C28D0C41C24F00304A04205D0211A9C
:10101000304600F009F901301DD02560304600F05F
:10102000F5FA04F10B0020F00700231DC21A01D0CD
:101030001B1AA350F8BD0C2232600020F8BD0B2B08
:1010400005D8A242636811D05360E7E714462360D5
:101050001C442560E2E70C233046336000F0D6FAEA
:101060000020F8BD0B2BF1D8536814463B60D5E740
:10107000304600F0D9F87860BEE700BFE4060020F3
:101080000EB410B5044683B008B1836963B106A8F5
:1010900003460190059AA168204600F0FDFA03B0CE
:1010A000BDE8104003B07047FFF744FEEFE700BF14
:1010B0000FB410B50B4B1C6882B00CB1A36963B1BF
:1010C00005A803460190049AA168204600F0E4FABE
:1010D00002B0BDE8104004B070472046FFF72AFE7A
:1010E000EEE700BF0000002010B5044682B008B152
:1010F000836933B1A268204602B0BDE8104000F019
:101100001BBE0191FFF716FE0199F3E738B50B4BB3
:101110001C6805460CB1A36933B12946A268204674
:10112000BDE8384000F008BE2046FFF703FE294620
:10113000A2682046BDE8384000F0FEBD0000002057
:1011400083692DE9F04180460E4633B384682F4B06
:101150009C4230D02E4B9C4239D02E4B9C4208BF33
:10116000D8F80C40A3891B072AD5236943B3013E55
:10117000A36816F8015F013BA3609DB3002B07DA5B
:10118000A7699F4222462946404623DC0A2D21D0EA
:1011900023685A1C22601D70EAE7FFF7CBFDD8F8E0
:1011A0001830D8F80840002BD1D14046FFF7C2FDD7
:1011B000164B9C42CED1D8F80440A3891B07D4D447
:1011C0002146404600F000F90028D0D006E0D8F8CB
:1011D0000840C7E700F082F80130C9D14FF0FF3076
:1011E000BDE8F081002B09DA224640460A2100F0D2
:1011F00075F80130F2D00A20BDE8F08123680A2298
:10120000591C21601A701046BDE8F0819034000826
:101210007034000850340008024B01461868FFF78C
:101220008FBF00BF0000002038B5074C00230546E3
:101230000846236001F06CF9431C00D038BD2368D8
:10124000002BFBD02B6038BD4428002010B50C4685
:10125000B1F90E1000F0F6FD002803DB636D0344C6
:10126000636510BDA38923F48053A38110BD00BF23
:10127000002070472DE9F0411646B1F90C201F46B9
:10128000D3050C460546B1F90E1009D422F480525C
:10129000A2813B4632462846BDE8F04100F07EB8C8
:1012A0000022022300F022F9B4F90C20B4F90E1048
:1012B000ECE700BF10B50C46B1F90E1000F016F9BE
:1012C000A389421C0EBF23F4805343F4805360650E
:1012D000A38110BDB1F90E1000F0F6B8F8B50D46B7
:1012E0001446064608B1836943B3254B9C422AD075
:1012F000244B9C4229D0244B9C4208BFF468A3890C
:10130000A269A2601A0722D5236903B32268616922
:10131000D31AEDB299422F4629DD0133A168501C42
:101320000139A1602060157062699A4216D0A389C4
:10133000DB0701D50A2D11D03846F8BDFFF7FAFCBE
:101340000F4B9C42D4D17468D9E7B468D7E72146E3
:10135000304600F039F838B92369D7E721463046DE
:10136000FFF7BEFB0028E7D04FF0FF37E4E7214648
:101370003046FFF7B5FB0028F6D122680123CDE700
:10138000903400087034000850340008024B0A46BC
:1013900001461868FFF7A2BF0000002070B50D4697
:1013A000084C114606461A4628460023236001F0E1
:1013B00027FE431C00D070BD2368002BFBD0336098
:1013C00070BD00BF442800203B4B70B51D68064629
:1013D0000C460DB1AB69DBB1384B9C421ED0384B8B
:1013E0009C424AD0374B9C4208BFEC68B4F90C20B1
:1013F00093B2190718D5206908B313F001022CD055
:10140000636900225B42A361A26060B3002070BDEB
:101410002846FFF78FFC294B9C42E0D16C68B4F959
:101420000C2093B21907E6D4DD063CD5580726D424
:10143000206942F00803A3819BB20028DDD103F4A8
:101440002072B2F5007FD8D03046214600F092F8E5
:10145000A389206913F00102D2D1990758BF6269AC
:10146000A2600028D2D1B4F90C301A06CFD543F0CF
:101470004003A3814FF0FF3070BDAC68B6E7616BED
:1014800051B104F14403994204D03046FFF73EFDC8
:10149000B4F90C200023636300232069636022F009
:1014A00024022060C5E742F04002092333604FF078
:1014B000FF30A28170BD00BF000000209034000802
:1014C000703400085034000838B5074C0023054636
:1014D0000846236000F0FCFF431C00D038BD2368A1
:1014E000002BFBD02B6038BD4428002070B50D4682
:1014F000084C114606461A4628460023236000F091
:10150000FFFF431C00D070BD2368002BFBD033606D
:1015100070BD00BF4428002070B50C46B1F90E1014
:10152000002996B016461D4613DB6A4600F0A0FC63
:1015300000280EDB019A02F47042A2F50052B2FAC2
:1015400082F252094FF4806300202A60336016B0A3
:1015500070BDA38900221B062A6004D54023002009
:10156000336016B070BD4FF480630020336016B056
:1015700070BD00BF8A8992070B4606D501F147026C
:1015800001211A60C3E90421704770B582B001AB34
:101590006A460C460646FFF7BFFF009905463046EF
:1015A000FFF70AFDB4F90C3070B11649B162019A27
:1015B0000099206043F08003A381C4E904018AB943
:1015C0002B43A38102B070BD9A05FBD423F0030323
:1015D00004F1470243F002030121A3812260C4E920
:1015E0000421EFE73046B4F90E1000F0D9FD10B930
:1015F000B4F90C30E4E7A38923F0030343F00103BB
:101600001BB2DDE7690B0008704700BF704700BFE1
:101610009368013B002B936011DA10B49469A342E4
:1016200009DB0A2907D01368581C10601970084696
:101630005DF8044B70475DF8044BFFF74FBE13682D
:10164000581C106019700846704700BF9BB1F8B570
:1016500013440F4606465D1E541E01E0AC4208D0FE
:101660003A4614F8011F3046FFF7D2FF431CF5D16C
:10167000F8BD0020F8BD0020704700BF936810B58A
:10168000144613B95360184610BD00F005FC002342
:10169000C4E9013310BD00BF2DE9F04F9FB08B4668
:1016A00090461C46039018B18369002B00F0B78068
:1016B000A24B9B4500F0B980A14B9B4500F0C78031
:1016C000A04B9B4504BF039BD3F80CB0BBF80C3078
:1016D000180740F1B280DBF81030002B00F0AD802D
:1016E00030238DF8323098F8003005940021202204
:1016F0000B918DF83120944E0127002B00F087804C
:10170000252B00F01581454603E0252B00F0A38032
:1017100025466B786C1C002BF7D1B4EB080A76D009
:101720004246534659460398FFF790FF01306ED06A
:101730000B9B6A7853440B93002A68D000234FF028
:10174000FF3201340693CDE908338DF85B301C93EA
:10175000079205E0069A07FA03F313432C46069313
:101760002546052215F8011B304600F031FDAA463A
:10177000831B0028EED1069BD90644BF20228DF89A
:101780005B2021781A0744BF2B228DF85B202A2981
:1017900066D1059A1168043200290592C0F29D8035
:1017A00009916178A51C2E2973D0684C032220462C
:1017B00000F00EFD002800F08680001B069B4024F0
:1017C00004FA00F00343069305F101082978604804
:1017D0008DF83010062200F0FBFC002800F083801A
:1017E0005C4B002B72D005AB00935A465A4B0398C2
:1017F00006A9AFF300808146B9F1FF3F07D00B9BEC
:101800004B440B9398F80030002B7FF479AFBBF872
:101810000C305B0618D40B981FB0BDE8F08FFFF7B3
:1018200089FA464B9B457FF447AF039BD3F804B03E
:10183000BBF80C3018073FF54EAF59460398FFF739
:10184000C3FD00283FF44CAF4FF0FF30E4E7039BAB
:10185000D3F808B03AE7B4EB080A3FF46FAF5FE79C
:10186000A1F13002092A88BFA2469CD8099B01E059
:101870002C460135297803EB830302EB4303A1F1E6
:101880003002092AAA46F3D92E2904F10205099348
:101890008BD19AF801102A292FD1059B9AF80210B2
:1018A0001A6807920433002A05930AF103050AF126
:1018B000020338DB254C032220469A4600F088FCC0
:1018C00000287FF47AAFA84655467FE7059B07338B
:1018D00023F007030833059391E7494243F00203DD
:1018E000099106935DE705AB00935A461A4B03989E
:1018F00006A900F0D5F881467EE7A1F13002002369
:10190000092A079301D915E05546697803EB83034B
:1019100002EB4303A1F13002092A05F1010AF3D9D0
:101920000235079341E74FF0FF329A4607923CE7B2
:10193000444603E7AA46013537E700BF9034000864
:1019400070340008503400080837000810370008C9
:1019500014370008000000004D16000810B4044CB5
:1019600013460A46014620685DF8044BFFF794BE13
:10197000000000202DE9F0470C4691460A6989686D
:10198000DDF820808A42B8BF0A46C9F8002094F8E2
:10199000431006461F4611B10132C9F800202368E2
:1019A00099065CD5D9F800200232C9F800202368D6
:1019B00013F0060F19461DD1E1688A1A002AD8BF14
:1019C000194617DD04F1190A002505E0E368D9F886
:1019D00000209B1AAB420CDD0123524639463046AB
:1019E000C047013005F10105F0D14FF0FF30BDE8EF
:1019F000F087216894F84330003318BF01238A062A
:101A00000AD5E1185A1C302081F84300224494F88A
:101A1000451082F84310023304F143023946304640
:101A2000C0470130E1D02368A268216903F00603B2
:101A3000042B1DD08A4226DD4FF00009521A914432
:101A40001A34002501E04D451DDA012322463946AE
:101A50003046C047013005F10105F4D1C5E713F068
:101A6000060F13D094F84330003318BF0123D3E797
:101A7000D9F80000E3688A42A3EB000323EAE37984
:101A8000DCDC002BDCDC0020BDE8F087E168D9F865
:101A900000208A1A002AD8BF194693DCAAE700BFA3
:101AA0002DE9F0430C46097E85B06E29064617469F
:101AB0000C98984604F1430E6DD039D9732900F083
:101AC000F68044D9752900F00481782940F011810D
:101AD00078232268DFF858C284F84530016815067B
:101AE00051F8043B016040F1A180D10744BF42F0AE
:101AF00020022260002B00F093801022002184F845
:101B000043106068A0600028C0F2C880216821F0FE
:101B100004012160002B40F0A380002840F0C08029
:101B20007546082A00F0AC80AEEB0503236141E066
:101B3000632900F0E5801AD8002938D0582940F0F0
:101B4000D88084F845102268DFF8E8C1C6E76F291D
:101B500000F0BF80702940F0CC802268DFF8D0C14F
:101B600042F020027823226084F84530B6E76429E9
:101B700002D0692940F0BD8022680368110603F194
:101B8000040557D5196805600B46002959DBDFF8B5
:101B9000A4C10A22B5E70368226861691D1D0560BA
:101BA00015061B6802D4500600F1BD8019600023A1
:101BB00075462361CDF800803B4603AA2146304696
:101BC000FFF7D8FE013020D02A4623693946304637
:101BD000C047013019D022680398E368920719D5ED
:101BE0001A1A002A16DD04F11909002504E0E36839
:101BF00003981A1AAA420DDD01234A463946304697
:101C0000C047013005F10105F1D14FF0FF3005B0BB
:101C1000BDE8F0839842B8BF184605B0BDE8F08330
:101C2000226822F020022260102267E7500648BF97
:101C30009BB25AE75106A5D5B3F9003005601946A5
:101C4000A3E76168A1602D200029C3F1000384F897
:101C5000430002DB22F004022260DFF8D8C00A222F
:101C6000754600E00B46B3FBF2F102FB11309342E4
:101C70001CF8000005F8010DF4D2082A7FF454AFD7
:101C80002368DB077FF550AF626823699A423FF70C
:101C90004BAF302305F8013C013D45E7002BDFD178
:101CA0009CF8003084F8423004F1420539E70368BB
:101CB0006268191D01601D680021284600F088FA3D
:101CC000002832D0401B60602061002384F843303C
:101CD00070E72268036812F0800F03F104051AD040
:101CE0001B6805606F290CBF08220A22DFF844C078
:101CF00004E7012384F84210236104F14205E4E77C
:101D000003681A68191D0123016004F1420584F873
:101D100042202361D9E712F0400F0DBF1B68056018
:101D20001B880560DEE7198041E76068CCE700BFEB
:101D3000303700081C37000810B5044682B008B1DF
:101D40008369D3B1194B9A4220D0194B9A4225D0BE
:101D5000184B9A4208BFE2689368013B002B9360DE
:101D60001ADA906983421BDBC8B20A2818D01368BC
:101D70005C1C1460197002B010BDCDE90012FEF7B2
:101D8000D9FFDDE90012094B9A42DED162689368FF
:101D9000013B002B9360E4DBC8B2E8E7A268DBE715
:101DA000204602B0BDE81040FFF798BA9034000812
:101DB00070340008503400081E4B70B51D6806468C
:101DC0000C460DB1AB69CBB11B4B9C421CD01B4BDD
:101DD0009C4225D01A4B9C4208BFEC68A368013B8B
:101DE000002BA36016DAA26993421BDBF0B20A282B
:101DF00018D023685A1C22601E7070BD2846FEF75A
:101E000099FF0D4B9C42E2D16C68A368013B002B0B
:101E1000A360E8DB23685A1C22601E70F0B270BD1C
:101E2000AC68DBE7224631462846BDE87040FFF744
:101E300055BA00BF0000002090340008703400083C
:101E40005034000870B50D46084C114606461A4637
:101E500028460023236001F0EFF8431C00D070BD3A
:101E60002368002BFBD0336070BD00BF44280020E6
:101E700038B50B46074C054611461846002323602B
:101E800000F02EFB431C00D038BD2368002BFBD094
:101E90002B6038BD442800209368002B00F002819D
:101EA0002DE9F04FB1F90C309BB20C46190783B005
:101EB0008246904635D522699AB313F00202D8F8CB
:101EC00000603DD00027D4F828B0D4F820C0DFF857
:101ED000CC923D464D452B463A4628BF4B4661467F
:101EE0005046D5B1D847002840F3D280D8F8083002
:101EF0001B1A07442D1AC8F80830002B00F0B780D1
:101F0000D4F820C0D4F828B04D452B463A4628BF17
:101F10004B4661465046002DE4D1D6E9007508369F
:101F2000D8E721465046FFF74FFA002840F03081AD
:101F3000B4F90C30D8F800609BB213F00202C1D1A2
:101F400013F0010940F0B080A76820684D46002DCD
:101F500054D09A0540F1BC80AF42BB4600F2E78006
:101F600013F4906F2FD0D4E9041707EB4707A0EBC9
:101F7000010B07EBD777681C7F105844B8423A46EC
:101F800084BF07463A465B0540F1E980114650465A
:101F9000FFF712F8002800F0F5805A4621690190F9
:101FA00000F066F9A289019B22F4906242F080025F
:101FB000A281A7EB0B0203EB0B006761236120609A
:101FC000A2602F46AB465A46494600F0EBF9A2689C
:101FD0002368D21B5B442F46A26023600025D8F8FB
:101FE0000830DB1BB944C8F80830002B3FD0B4F9E7
:101FF0000C30A76820689BB2002DAAD1D6E90095C5
:102000000836A4E70BF1080353E902679B4608333F
:10201000002FF9D03A460A21304600F0D9F80028BE
:1020200053D00130A0EB06094B46D4E904122068D6
:10203000BB4228BF3B46884203D9A5681544AB4242
:1020400019DC9A427DDC1346A56A216A3246504665
:10205000A847051E1CDDB9EB05096BD00120D8F897
:1020600008305B1B2E447F1BC8F8083013BB0020D0
:1020700003B0BDE8F08F31462A4600F093F923689B
:102080002B44236021465046FEF72AFD0028E2D06B
:10209000B4F90C3043F040034FF0FF30A38103B09C
:1020A000BDE8F08F00207047334691461046174632
:1020B0004E469B46002FA5D00028B5D13A460A21AE
:1020C000304600F085F80028ABD17B1C9946ACE780
:1020D0002369834215D36169A94212D82E4BA76A9E
:1020E0009D4294BF2B466FF000434A4693FBF1F3A9
:1020F000504601FB03F3216AB847071EC8DDED1BFC
:102100006DE7AF4228BF2F463A46494600F04AF9EC
:10211000A3682268DB1B3A44A3602260002BEED147
:1021200021465046FEF7DCFC0028E8D0B0E72F46F9
:10213000AB4648E721465046FEF7D2FC00288ED039
:10214000A6E71A463146019300F02CF9019BA168DD
:102150002268C91A1A44A16022601D467BE75046D6
:1021600000F088F9034600287FF423AF2169504628
:10217000FEF7CCFEB4F90C300C2223F08003CAF831
:10218000002087E70C23CAF80030B4F90C3081E74F
:102190004FF0FF306CE700BFFEFFFF7F00FCFF7FCA
:1021A00038B5074C002305460846236000F0A0F927
:1021B000431C00D038BD2368002BFBD02B6038BDFA
:1021C0004428002000000000000000000000000083
:1021D00001F0FF01102A2BDB10F0070F08D010F8D8
:1021E000013B013A8B422DD010F0070F42B3F6D1DC
:1021F000F0B441EA012141EA014122F007047FF0F5
:1022000000070023F0E80256083C85EA010586EA4B
:10221000010685FA47F5A3FA87F586FA47F6A5FA87
:1022200087F68EB9EED1F0BC01F0FF0102F0070293
:1022300032B110F8013B013A83EA010313B1F8D13E
:102240000020704701387047002D06BF354603381F
:10225000073815F0010F07D1013015F4807F02BF58
:10226000013015F4C03F0130F0BC0138704700BFA9
:10227000844641EA000313F003036DD1403A41D391
:1022800051F8043B40F8043B51F8043B40F8043B50
:1022900051F8043B40F8043B51F8043B40F8043B40
:1022A00051F8043B40F8043B51F8043B40F8043B30
:1022B00051F8043B40F8043B51F8043B40F8043B20
:1022C00051F8043B40F8043B51F8043B40F8043B10
:1022D00051F8043B40F8043B51F8043B40F8043B00
:1022E00051F8043B40F8043B51F8043B40F8043BF0
:1022F00051F8043B40F8043B51F8043B40F8043BE0
:10230000403ABDD2303211D351F8043B40F8043B7F
:1023100051F8043B40F8043B51F8043B40F8043BBF
:1023200051F8043B40F8043B103AEDD20C3205D38F
:1023300051F8043B40F8043B043AF9D2043208D087
:10234000D2071CBF11F8013B00F8013B01D30B88F9
:1023500003806046704700BF082A13D38B078DD0D7
:1023600010F003038AD0C3F10403D21ADB071CBFA9
:1023700011F8013B00F8013B80D331F8023B20F813
:10238000023B7BE7043AD9D3013A11F8013B00F84C
:10239000013BF9D20B7803704B7843708B788370D4
:1023A000604670478842F0B40DD98B1883420AD931
:1023B000841832B1224613F8014D02F8014D9942BA
:1023C000F9D1F0BC70470F2A0ED80346541E002ADC
:1023D000F7D001340C44013B11F8012B03F8012F15
:1023E000A142F9D1F0BC704740EA01039B073BD101
:1023F000A2F110073F0901F1200606EB071601F1D3
:10240000100300F1100453F8105C44F8105C53F80A
:102410000C5C44F80C5C53F8085C44F8085C53F816
:10242000045C44F8045C1033B34204F11004EAD1B4
:102430007B1C1B0112F00C0F194402F00F05034422
:1024400015D0043DAD0803EB850C1C1F0E4656F855
:10245000047B44F8047F6445F9D10135AD002B4479
:10246000294402F00302B1E7541E0346B1E72A46AD
:10247000ACE700BF09B3F8B51446CAB106460D462D
:1024800000F01EF8A04202D32F463846F8BD214680
:102490003046FEF791FD07460028F6D02246294631
:1024A000FFF7E6FE30462946FEF730FD3846F8BD18
:1024B0002746FEF72BFD3846F8BD1146FEF77CBDDA
:1024C00051F8043C181F002BBCBF0B58C0187047B4
:1024D000024B58221A604FF0FF307047442800200A
:1024E000024B58221A604FF0FF30704744280020FA
:1024F000024B58221A600020704700BF4428002079
:10250000024B58221A604FF0FF30704744280020D9
:10251000044A05491368002B08BF0B461844106095
:1025200018467047EC060020482800202DE9F04F9F
:1025300083B000F005FA00F0BFF901214FF48020CC
:1025400000F092FE00F020FA00F096FA882000F0E9
:10255000AFFA734B7348744E744F02225A830421AE
:10256000082219835A83FEF757FE7C20FEF7CEFD22
:1025700033689868FEF7E4FA00241FE0B5F5FA7FA7
:1025800025D0B5F57A7F22D040F2DC539D421ED093
:10259000B5F5FA6F1BD040F6C4139D4217D040F634
:1025A000B8339D4213D040F6AC539D420FD0B5F5E1
:1025B0007A6F0CD00134B4F5805F13D0A5B22A46EF
:1025C00000239021384600F09BFA002CD6D12E2013
:1025D000FEF79CFD336801349868FEF7B1FAB4F554
:1025E000805FEBD15248514F524DFEF715FE5248D5
:1025F000FEF712FE0024A2B2FF231021384600F09D
:102600007FFA01462846FEF753FD33680134986887
:10261000FEF796FA102CEED14848494D434FFEF78D
:10262000FBFD4848FEF7F8FD7C20FEF76FFD3368A0
:102630009868FEF785FA00240CE0B4F5FA7F15D00F
:10264000B4F57A7F12D09C4210D00134A4B2B4F514
:10265000C06F16D015F8013F22469021384600F091
:102660004FFA2E2040F2DC53002CE6D1FEF74EFD4F
:10267000336801349868A4B2FEF762FAB4F5C06F0B
:10268000E8D13148294F314DDFF8D8B0DFF8D8A074
:10269000DFF8D890FEF7C0FD2D48FEF7BDFD002005
:1026A00000F068FB2B48FEF7B7FD4E230022C02147
:1026B00000933846284B00F09DFA2848FEF7ACFD01
:1026C000012000F057FB8A2000F0F2F98C2000F086
:1026D000EFF94FF000082E4600F09AFB0323009319
:1026E000384633461222402100F084FA6C78AA78EA
:1026F0002B78240244EA02441C43CBF800402046D5
:10270000FDF7CCFE42464B46FDF742FF02460B4624
:1027100013482146CAE90023FEF7CAFCDCE700BFE4
:1027200000000240B83500080000002000300140E1
:10273000E43500082C36000804360008343600085A
:102740006300002050360008A0360008F027002063
:10275000C0360008D436000864060020EC360008B5
:10276000FC360008F8270020082800200000A03EC2
:10277000002103E00B4B5B58435004310A480B4BDC
:1027800042189A42F6D30A4A02E0002342F8043B78
:10279000084B9A42F9D300F011F8FEF73BFBFFF724
:1027A000C5FE70474C37000800000020C40600201A
:1027B000C806002048280020FEE700003849394BB1
:1027C000D1F88820384842F47002C1F888201A688D
:1027D000002142F001021A6099601A6822F08472A6
:1027E00022F480321A6058601A6882B022F4802283
:1027F0001A60D960009101911A6842F480321A601F
:1028000003E0009AB2F5A04F09D01A6802F4003232
:102810000192009A01320092019A002AF1D0214BD4
:102820001B6813F4003318BF01230193019B012B94
:1028300005D01B4B4FF000629A6002B07047194BF5
:102840001A491A6C1A4842F080521A640A6842F413
:1028500040420A609A689A609A6842F400429A601C
:102860009A6842F4A0529A6058601A6842F08072E6
:102870001A601A689201FCD50E4A0A4940F20570A6
:1028800010609A6822F003029A609A6842F002028D
:102890009A608B6803F00C03082BFAD1C9E700BFDC
:1028A00000ED00E0003802401030002400700040CD
:1028B00008544007003C024030B5012187B01D4C50
:1028C0001D4D084600F0D0FC0121102000F0D8FC7E
:1028D000204607220A2100F06BFC2046072209212E
:1028E00000F066FC154B204669464FF40072CDE9B6
:1028F000002300F001FC6946204602224FF4806369
:102900008DF8042000934FF4E13400F0F5FB002330
:102910004FF44022284602A9CDE90332ADF8143025
:10292000029400F00BFD2846012100F069FD07B07C
:1029300030BD00BF00000240001001400202000153
:10294000F0B5012183B00E4C084600F08DFC0D4B14
:10295000022720466946CDE90073042600F0CCFB2F
:10296000694620460825009600F0C6FB69462046C9
:10297000009500F0C1FB27832683258303B0F0BDBB
:1029800000000240010000012DE9F047002182B063
:102990000D2000F081FC01210D2000F065FC0021DC
:1029A0004FF48050314CDFF8CCA0314F00F080FC68
:1029B00001214FF4805000F063FC052220461146AF
:1029C00000F0F6FB20460522062100F0F1FB05226F
:1029D0002046072100F0ECFB40F202254FF02008D2
:1029E00020466946CDE9008500F086FB6946204611
:1029F0004023CDE9003500F07FFB80236946204667
:102A0000CDE9003540F2012900F076FB102569463A
:102A100020460026CDE9005900F06EFB694650467D
:102A200001238DF8043000958DF8076000F064FBF9
:102A30004FF4007350466946CDE9008300F05CFB1B
:102A40004FF0020869463846ADF804908DF80660EC
:102A5000CDF8008000F050FB32464146384600F089
:102A6000A1FB258302B0BDE8F08700BF0000024053
:102A7000000402400008024010B586B00A4B0393E0
:102A80004FF082712022072301910848049201A986
:102A90000024ADF81430029400F016FC0348012124
:102AA00000F032FC06B010BD010000020030014011
:102AB000114B102210B504465A831048022100F031
:102AC00037FC0028F9D00D48214600F02FFC0B48B8
:102AD000012100F02DFC0028F9D00848044600F040
:102AE00021FC8021204600F023FC0128F9D0024B74
:102AF00010221A8310BD00BF0000024000300140C8
:102B0000DFF8ECC02DE9F041904610220D46044656
:102B10001E4641EA1827ACF81A200221204600F090
:102B200007FC0028F9D03946204600F0FFFB2F4F64
:102B30000121384600F0FCFB0028F9D0204600F0C7
:102B4000F1FB0221204600F0F3FB0028F9D05FFAE8
:102B500088F1204600F0EAFB244F0121384600F0BE
:102B6000E7FB0028F9D0204600F0DCFB902D01D0D7
:102B7000A02D13D10221204600F0DAFB0028F9D065
:102B80003146204600F0D2FB184E0121304600F0BD
:102B9000CFFB0028F9D0204600F0C4FB102D0ED04A
:102BA000202D0CD000258021204600F0C1FB0128FB
:102BB000F9D00F4B102228461A83BDE8F0810B4D47
:102BC0000221284600F0B4FB0028F9D00748002174
:102BD000054600F0ABFB0121284600F0A9FB0028C8
:102BE000F9D0024800F09EFBC5B2DCE7003001409E
:102BF000000002402DE9F8435C4E9DF820804FF024
:102C0000100C0446894615461F46A6F81AC0022134
:102C1000204600F08DFB0028F9D04946204600F000
:102C200085FB534E0121304600F082FB0028F9D08D
:102C3000204600F077FB0221204600F079FB0028B7
:102C4000F9D02946204600F071FB494D0121284664
:102C500000F06EFB0028F9D0204600F063FBB9F1CC
:102C6000900F1BD0B9F1A00F18D0B9F1C00F15D03B
:102C7000B9F1100F4FF000062CD0B9F1200F29D078
:102C8000B9F1400F54D08021204600F051FB0128BB
:102C9000F9D0364B10221A83BDE8F883344D002654
:102CA0000221204600F044FB0028F9D0B95D2046FF
:102CB00000F03CFB0121284600F03AFB0028F9D047
:102CC0000136204676B200F02DFB4645E8DBB9F12F
:102CD000100FD2D1264D0221284600F029FB0028F2
:102CE000F9D023480021054600F020FB01212846A9
:102CF00000F01EFB0028F9D01D48054600F012FB2D
:102D00000221284600F014FB0028F9D018480021C1
:102D1000054600F00BFB0121284600F009FB0028C6
:102D2000F9D0134800F0FEFAB9F1400F3870AAD17B
:102D30000F4D07EB06090221284600F0F9FA00289A
:102D4000F9D00021284600F0F1FA0121284600F0D0
:102D5000EFFA0028F9D0284600F0E4FA013676B2FE
:102D6000464589F80000E4DB8DE700BF0000024023
:102D700000300140244B102210B504465A832348EA
:102D8000022100F0D5FA0028F9D02048C02100F037
:102D9000CDFA1E48012100F0CBFA0028F9D01B48DB
:102DA00000F0C0FA1948022100F0C2FA0028F9D058
:102DB00016484D2100F0BAFA1448012100F0B8FA83
:102DC0000028F9D0114800F0ADFA1048022100F0B7
:102DD000AFFA0028F9D00D48214600F0A7FA0B48B9
:102DE000012100F0A5FA0028F9D00848044600F0B7
:102DF00099FA8021204600F09BFA0128F9D0024B75
:102E000010221A8310BD00BF0000024000300140B4
:102E100010B5044C2021204600F0BEF90128F9D05D
:102E200010BD00BF000802402DE9F0476C4EDFF8EE
:102E3000C8A16C4D6C4FDFF8B481DFF8C091284613
:102E400000F0F0FAC1B20D292FD0082900F09D80C2
:102E50007F2900F09A80172961D0152900F086801B
:102E600034883B88E31A89FB0302D018DA17C2EBD7
:102E7000A012C2EBC2129B1A7E2B00F0AB80621C28
:102E8000A8FB0203D01A03EB50039B09C3EBC31347
:102E9000D31A28460AF80410338000F0BFFA2846F7
:102EA00000F0C0FAC1B20D29CFD135884F4B4D4843
:102EB0006A1CA3FB0243D41A03EB54039B09C3EB24
:102EC000C313D31A0A2400220AF8054033800AF8F3
:102ED000032000F0A3FA21464248BDE8F04700F085
:102EE0009DBA1AF804007E34FDF7B8FFA8FB04135E
:102EF000E11A03EB51039B090246C3EBC313E31A28
:102F000008212846002A9AD1338000F087FA202130
:102F1000284600F083FA0821284600F07FFA34881A
:102F20003B88E31A89FB0312D118DA17C2EBA1120E
:102F3000C2EBC2129B1A002BD3DC80E703F17E02A6
:102F4000A8FB0213D11A03EB51039B09C3EBC31374
:102F5000D31A08212846338000F060FA2021284641
:102F600000F05CFA0821284600F058FA33883A88C5
:102F70009A1A89FB02018818D117C1EBA011C1EB85
:102F8000C111521A002AD9DC59E732883988184B06
:102F90001848511A03FB01F303F1817303F58163B0
:102FA000834217D97E32A8FB0213D11A03EB5103D7
:102FB0009B09C3EBC313D21A28460821328000F0C4
:102FC0002DFA2846202100F029FA0821284600F091
:102FD00025FA34E70721284600F020FA2FE700BF42
:102FE0007007002000100140720700201108040241
:102FF0007FBFDFEF10080402F00600200904028101
:10300000022813DC002AF8B517460DDD4C1E094EC8
:10301000A5180848802100F009FA0028F9D014F812
:10302000013FB380AC42F4D13846F8BD4FF0FF30D9
:10303000704700BF00100140022850DC2DE9F84322
:10304000DFF8A880274CB8F800302788BB420D462F
:10305000914604D1FFF7E8FE2788B8F80030224EE9
:10306000F81A86FB00242218C417C4EBA214C4EB80
:10307000C414001B00282FDDB9F1000F2CDDDFF890
:1030800070E0DFF870C005EB0901002001E08D421F
:103090001ED05C1CACFB0492A4EB020902EB5902AB
:1030A0001EF8033005F8013B9309C3EBC313E31A81
:1030B000FA1A86FB029404EB0209D417C4EBA91494
:1030C000C4EBC414121B002A00F101009CB2DEDC28
:1030D000A8F80040BDE8F8830020BDE8F8834FF071
:1030E000FF3070477007002009040281720700203A
:1030F000F0060020110804022DE9F04700230F68B4
:1031000001264FF0030C02E00133102B41D006FAE8
:1031100003F232EA0704F7D1D0F800E05C000CFAC1
:1031200004F52EEA050EC0F800E091F80490D0F8FE
:1031300000A009FA04FE09F1FF394EEA0A0EB9F1BE
:10314000010FA846C0F800E06FEA050515D8D0F8D1
:1031500008E005EA0E0585604D79D0F808E0A54045
:1031600045EA0E058560456825EA020242608A79D3
:1031700045689A4092B22A434260C26822EA080235
:10318000C260CA79C568A24001332A43102BC260CD
:10319000BDD1BDE8F08700BF0369194214BF01200B
:1031A000002070470AB1018370474183704700BF18
:1031B000CB0800EB830001F0070110B4036A89001B
:1031C0000F248C4023EA04030362036A5DF8044B76
:1031D0008A401A43026270471F4A936803F00C0347
:1031E000042B10B41BD0082B1CD01C4B03601A4AB4
:1031F0001B499468C4F303140C5DE3404360946876
:10320000C4F382240C5D23FA04F4846092685DF8B0
:10321000044BC2F342328A5CD340C3607047114B07
:103220000360E4E75468516852686302C2F388128D
:103230004CBF0C4B094B01F03F01B3FBF1F303FB17
:1032400002F3054A5268C2F3014201325200B3FB55
:10325000F2F30360CBE700BF003802400024F40023
:10326000B406002000127A00044A136B11B118430F
:103270001063704723EA0000106370470038024073
:10328000044A536C11B118435064704723EA00009C
:103290005064704700380240044A136911B1184362
:1032A0001061704723EA0000106170470038024047
:1032B000044A536A11B118435062704723EA000070
:1032C00050627047003802400B888A8830B44C88BE
:1032D000CD88234313430C894A892B4323438D898B
:1032E000CC89098A134302882B43234302F44152B9
:1032F00013439BB20380838B23F400631B041B0CDA
:10330000838330BC01827047038821B19BB243F0B4
:1033100040030380704723F040031B041B0C038011
:10332000704700BF808980B2704700BF81817047BD
:103330000389194214BF012000207047028A70B52A
:1033400092B20446C8880D4622F44052024389894D
:10335000AB882E892282A289688922F4B05222F099
:103360000C02334303431204120C9BB21343A38198
:10337000A38A9BB223F440730B4384B0A3826846B4
:10338000FFF72AFF1C4B9C4205D003F580639C424B
:1033900001D0029A00E0039AA38913F4004F2B682E
:1033A000164D02EB820214BF5B009B0002EB82020F
:1033B000B2FBF3F0A289A5FB003149096423120492
:1033C00003FB11034FEA01110AD41B013233A5FBA1
:1033D0000323C3F343130B439BB2238104B070BD9B
:1033E000DA003232A5FB0232C2F3421242EA010392
:1033F0009BB2238104B070BD001001401F85EB51CA
:10340000838921B19BB243F400538381704723F435
:1034100000531B041B0C8381704700BFC1F30801DC
:10342000818070478088C0F3080070470388194284
:1034300014BF012000207047F8B500BFF8BC08BCDD
:103440009E467047F8B500BFF8BC08BC9E46704762
:10345000000000000000000000000000000000006C
:10346000000000000000000000000000000000005C
:10347000000000000000000000000000000000004C
:10348000000000000000000000000000000000003C
:10349000000000000000000000000000000000002C
:1034A000000000000000000000000000000000001C
:1034B0000400002000202020202020202020282878
:1034C00028282820202020202020202020202020E4
:1034D0002020202020881010101010101010101024
:1034E0001010101010040404040404040404041054
:1034F00010101010101041414141414101010101E2
:1035000001010101010101010101010101010101AB
:1035100010101010101042424242424202020202B7
:10352000020202020202020202020202020202027B
:10353000101010102000000000000000000000002B
:10354000000000000000000000000000000000007B
:10355000000000000000000000000000000000006B
:10356000000000000000000000000000000000005B
:10357000000000000000000000000000000000004B
:10358000000000000000000000000000000000003B
:10359000000000000000000000000000000000002B
:1035A000000000000000000000000000000000001B
:1035B00000000000000000007C20202020202020AF
:1035C00020207C20436C65617220636F6D706C6598
:1035D0007465205352414D206D656D6F72792028BE
:1035E000346B29007C205352414D20616464726524
:1035F00073732034303935207265616368656421E6
:10360000000000005265616420746865206669727C
:1036100073742031362042797465732066726F6D41
:10362000205352414D2E2E2E000000002025303216
:10363000580000000A205352414D206164647265B5
:103640007373203135207265616368656421000001
:103650000A7C2020202020207C205772697465205D
:10366000746865204669727374203936204C696E1F
:103670006573206F662042797465732066726F6D82
:1036800020746865204669726D7761726520696E85
:10369000746F205352414D2028346B2900000000E4
:1036A0007C205352414D20616464726573732031F4
:1036B000353336207265616368656421000000005F
:1036C0000A436C6561722052554E4249542E2E2E8B
:1036D0000A0000005772697465206D6F646966792D
:1036E00020436F6E6669672E2E2E0A005365742084
:1036F00052554E4249542E2E2E0A00005245532058
:103700003D20256C640A0000232D302B2000000092
:10371000686C4C00656667454647000030313233BF
:1037200034353637383941424344454600000000BD
:103730003031323334353637383961626364656627
:043740000000000085
:04374400F90100087F
:04374800D1010008A3
:10374C0004000020000000009034000870340008D1
:10375C0050340008000000000000000000000000D1
:10376C00000000000000000000000000000000004D
:10377C00000000000000000000000000000000003D
:10378C00000000000000000000000000000000002D
:10379C00000000000000000000000000000000001D
:1037AC00000000000000007AC0CFFFF0D2437AD0B6
:1037BC003472626300657AC4D1437AD033AB5E4213
:1037CC005C48B0012068B102782060B2012068B377
:1037DC001B7AC2D1437ADB33AB007F7AD4437AE4D1
:1037EC00447AC3D1437ADB33AB00782060B50B72DB
:1037FC00627F7AD4437AE444206000B70278206078
:10380C0084012580010000000000201B7AC0D143F8
:10381C007ADB33AB007F23988401258020914358B9
:10382C007AC0D1436AC0447AC4D1437AD03A66672D
:10383C00767766201B7AC0C0C0C8D2437ADE447A41
:10384C00C0C0C1D1D2437ADD447AC0C0C0C8D24115
:10385C0025D16AD0437AD9446AD1437ADA446AD200
:10386C00437ADB4420D87060716166677677667B3B
:10387C007AC1D1437ADB33AB007820607AD5437AB6
:10388C00C7D1416AEB455A22F1464646467ADD4499
:10389C007AC0C0C0C8D243557ADE457ADD517AD69B
:1038AC004125B56AEA457AD74125B56AE9451C41F7
:1038BC0043586AEA22AB6AE950466AEB44A9036AA8
:1038CC00EB59437AD0D1415CA8056AC05A6AEB45E2
:1038DC006AEB417AE2457AD84125B56AEA457AD94C
:1038EC004125B56AE9451D4143586AEA22AB6AE9AC
:1038FC0050466AEB44A9036AEB59437AD0D1415C38
:10390C00A8056AC05A6AEB456AEB417AE34502FFA7
:10391C00FFFFFFFFFFFFFFFFFFFFFFFFFFFFFFFFAB
:10392C00FFFFFFFFFFFFFFFFFFFFFFFFFFFFFFFF9B
:10393C00FFFFFFFFFFFFFFFFFFFFFFFFFFFFFFFF8B
:10394C00FFFFFFFFFFFFFFFFFFFFFFFFFFFFFFFF7B
:10395C00FFFFFFFFFFFFFFFFFFFFFFFFFFFFFFFF6B
:10396C00FFFFFFFFFFFFFFFFFFFFFFFFFFFFFFFF5B
:10397C00FFFFFFFFFFFFFFFFFFFFFFFFFFFFFFFF4B
:10398C00FFFFFFFFFFFFFFFFFFFFFFFFFFFFFFFF3B
:10399C00FFFFFFFFFFFFFFFFFFFFFFFFFFFFFFFF2B
:1039AC00FFFFFFFF474747474747474747474747BB
:1039BC00474747474747474747474747474747478B
:1039CC00474747474747474747474747474747477B
:1039DC0047474747024F4F4F4F4F4F4F4F4F4F4F58
:1039EC004F4F4F4F4F4F4F4F4F4F4F4F4F4F4F4FDB
:1039FC004F4F4F4F4F4F4F4F4F4F4F4F4F4F4F4FCB
:103A0C004F4F4F4F4F024E4E4E4E4E4E4E4E4E4E11
:103A1C004E4E4E4E4E4E4E4E4E4E4E4E4E4E4E4EBA
:103A2C004E4E4E4E4E4E4E4E4E4E4E4E4E4E4E4EAA
:103A3C004E4E4E4E4E4E025656565656565656569E
:103A4C00565656565656565656565656565656560A
:103A5C0056565656565656565656565656565656FA
:103A6C0056565656565656025E5E5E5E5E5E5E5EFE
:103A7C005E5E5E5E5E5E5E5E5E5E5E5E5E5E5E5E5A
:103A8C005E5E5E5E5E5E5E5E5E5E5E5E5E5E5E5E4A
:103A9C005E5E5E5E5E5E5E5E5E026AF544427AC6A5
:103AAC00D1416AF345405D22F1464646466AF444EC
:103ABC0059596AF3455B5BAB106AF543405D6AF29A
:103ACC0022ED6AF313AAF613AA046AF543405D6A61
:103ADC00F45757AB076AF25E6AF413AAF7026AF559
:103AEC00457AC6D1416AF345405D22F146464646C9
:103AFC006AF44459596AF3455B5BAB106AF5414370
:103B0C00586AF222BB6AF313AAF613AA046AF541A7
:103B1C0043586AF45757AB076AF2566AF413AAF77C
:103B2C00026AF545AB137AC7D15AAC08524B124E08
:103B3C0012A8FBA9055A4612A8FB00027AF64340CC
:103B4C004F4F4F6AF6457ADA4143586AF622AB6A10
:103B5C00F5447AC0C0C1E6D2437ADD447AC0C0C015
:103B6C00C8D2417ADE457AC0C0C1EDD2436AF44472
:103B7C001C43AB026AF5588C047ADD131C501D44AF
:103B8C007ADD137ADE136AF4437ADD58ACE18C17D4
:103B9C007AEF436AC8597AF0436AC9597AF3436A8F
:103BAC00CA597AF4436ACB59006AC97AC0C0C0C9F1
:103BBC00D2437ADD446AF2446AF3447AC0C0C0C886
:103BCC00D2437ADE441D434E4E4E447AC0C0C0CF21
:103BDC00D2436AF4448C097AC0C0C0CBD2436AF495
:103BEC004400405D1C431D22DC6AF3437ADD441C17
:103BFC00458D0C7ADE13131D434E4E4E446AF21360
:103C0C006AF3136AF213417ADD456AF4435CACD073
:103C1C007AC0C0C0CFD2436AF4446AF3416AF44319
:103C2C005CA80C6AF343137ADD441C445943ABE99A
:103C3C006AC843464646448A14405D4B7AC8D14311
:103C4C007AF933AB1C6AC8456AC9458D0100026A12
:103C5C00CA456ACB456ACC456ACD456ACE456ACF22
:103C6C0045027AC2D1436AF5446AF4448C097AC19C
:103C7C00D1436AF5446AF4448D1A7AC1D1436AF58A
:103C8C00444E506AF4448C0C7AC0D1436AF5444ECD
:103C9C004E506AF4447AC0C0C0C8D2434E4E6AF447
:103CAC00517AC9D1437AF933AB0125756AF5436A68
:103CBC00F4517ACAD1437AF933AB0125756AF543CD
:103CCC006AF4517ACBD1437AF933AB0125756AF595
:103CDC00436AF4517ACCD1437AF933AB0125756A36
:103CEC00F5436AF4517ACDD1437AF933AB0125759A
:103CFC006AF5436AF4517ACED1437AF933AB012594
:103D0C00756AF5436AF4517ACFD1437AF933AB0132
:103D1C0025756AF5436AF451026AF44346467ADD26
:103D2C00441C45027AE2414F4F4F6AF2455A7AE3FE
:103D3C00436AF225B26AD0455A7AE4436AF225B254
:103D4C006AD1455A7AE5436AF225B26AD2457AC8F5
:103D5C00D1437AD03A0222DC027AD7D1436AF245B7
:103D6C005DAD015D4541027ACFD1436AF2455DAD4F
:103D7C00015D4541024B121D431C447ADD137ADE72
:103D8C001312AAF2027AC0C0C0D0D24358586AF2B9
:103D9C004442463C13AAFA02FFFFFFFFFFFFFFFF5E
:103DAC00FFFFFFFF0F00019480050104A800100025
:103DBC004101000000140000000000020801000294
:103DCC0040050100000043050000500000000044C5
:103DDC000000FF0027300000000000000000000081
:103DEC00000000000000000000000000002801009E
:103DFC0000010000000000000102030401020304A2
:043E0C000607080994
:040000050800277157
:00000001FF
